{
  "unsigned": {
    "chainId": 17000,
    "to": "0x4242424242424242424242424242424242424242",
    "value": "0x1bc16d674ec800000",
    "data": "0x22895118000000000000000000000000000000000000000000000000000000000000008000000000000000000000000000000000000000000000000000000000000000e00000000000000000000000000000000000000000000000000000000000000120eeeeeeeeeeeeeeeeeeeeeeeeeeeeeeeeeeeeeeeeeeeeeeeeeeeeeeeeeeeeeeee0000000000000000000000000000000000000000000000000000000000000030aaaaaaaaaaaaaaaaaaaaaaaaaaaaaaaaaaaaaaaaaaaaaaaaaaaaaaaaaaaaaaaaaaaaaaaaaaaaaaaaaaaaaaaaaaaaaaaa00000000000000000000000000000000000000000000000000000000000000000000000000000000000000000000002001000000000000000000000011111111111111111111111111111111111111110000000000000000000000000000000000000000000000000000000000000060cccccccccccccccccccccccccccccccccccccccccccccccccccccccccccccccccccccccccccccccccccccccccccccccccccccccccccccccccccccccccccccccccccccccccccccccccccccccccccccccccccccccccccccccccccccccccccccccc",
    "gas": 250000,
    "maxFeePerGas": "0x4a817c800",
    "maxPriorityFeePerGas": "0x3b9aca00",
    "nonce": 0,
    "type": "0x2"
  },
  "from": "0x1a642f0E3c3aF545E7AcBD38b07251B3990914F1",
  "hash": "0xe00d2e5332902ab8638737b7e99df242306ee82838401f15f92eda9a64f9893a",
  "r": "0x7f1ae075f33b8e0d08c74e3d916d954437f5ae9a0e6f1febe6ca76cb35194bfa",
  "s": "0x73138ce46a08e2516bc5eb31f26ed70934db3f88f174914278c78634a6a33955",
  "v": "0",
  "rawRLP": "0x02f9021d82426880843b9aca008504a817c8008303d0909442424242424242424242424242424242424242428901bc16d674ec800000b901a422895118000000000000000000000000000000000000000000000000000000000000008000000000000000000000000000000000000000000000000000000000000000e00000000000000000000000000000000000000000000000000000000000000120eeeeeeeeeeeeeeeeeeeeeeeeeeeeeeeeeeeeeeeeeeeeeeeeeeeeeeeeeeeeeeee0000000000000000000000000000000000000000000000000000000000000030aaaaaaaaaaaaaaaaaaaaaaaaaaaaaaaaaaaaaaaaaaaaaaaaaaaaaaaaaaaaaaaaaaaaaaaaaaaaaaaaaaaaaaaaaaaaaaaa00000000000000000000000000000000000000000000000000000000000000000000000000000000000000000000002001000000000000000000000011111111111111111111111111111111111111110000000000000000000000000000000000000000000000000000000000000060ccccccccccccccccccccccccccccccccccccccccccccccccccccccccccccccccccccccccccccccccccccccccccccccccccccccccccccccccccccccccccccccccccccccccccccccccccccccccccccccccccccccccccccccccccccccccccccccccc080a07f1ae075f33b8e0d08c74e3d916d954437f5ae9a0e6f1febe6ca76cb35194bfaa073138ce46a08e2516bc5eb31f26ed70934db3f88f174914278c78634a6a33955"
}
